{
  "contractName": "SpecCoin",
  "abi": [
    {
      "constant": true,
      "inputs": [],
      "name": "name",
      "outputs": [
        {
          "name": "",
          "type": "string"
        }
      ],
      "payable": false,
      "stateMutability": "view",
      "type": "function"
    },
    {
      "constant": true,
      "inputs": [],
      "name": "getSymbol",
      "outputs": [
        {
          "name": "",
          "type": "string"
        }
      ],
      "payable": false,
      "stateMutability": "view",
      "type": "function"
    },
    {
      "constant": true,
      "inputs": [],
      "name": "getName",
      "outputs": [
        {
          "name": "",
          "type": "string"
        }
      ],
      "payable": false,
      "stateMutability": "view",
      "type": "function"
    },
    {
      "constant": true,
      "inputs": [],
      "name": "totalSupply",
      "outputs": [
        {
          "name": "",
          "type": "uint256"
        }
      ],
      "payable": false,
      "stateMutability": "view",
      "type": "function"
    },
    {
      "constant": true,
      "inputs": [],
      "name": "decimals",
      "outputs": [
        {
          "name": "",
          "type": "uint8"
        }
      ],
      "payable": false,
      "stateMutability": "view",
      "type": "function"
    },
    {
      "constant": true,
      "inputs": [
        {
          "name": "",
          "type": "address"
        }
      ],
      "name": "balanceOf",
      "outputs": [
        {
          "name": "",
          "type": "uint256"
        }
      ],
      "payable": false,
      "stateMutability": "view",
      "type": "function"
    },
    {
      "constant": true,
      "inputs": [],
      "name": "symbol",
      "outputs": [
        {
          "name": "",
          "type": "string"
        }
      ],
      "payable": false,
      "stateMutability": "view",
      "type": "function"
    },
    {
      "constant": true,
      "inputs": [
        {
          "name": "inquireAddress",
          "type": "address"
        }
      ],
      "name": "getBalanceOf",
      "outputs": [
        {
          "name": "",
          "type": "uint256"
        }
      ],
      "payable": false,
      "stateMutability": "view",
      "type": "function"
    },
    {
      "inputs": [
        {
          "name": "to",
          "type": "address"
        },
        {
          "name": "amount",
          "type": "uint256"
        },
        {
          "name": "tokenSymbol",
          "type": "string"
        }
      ],
      "payable": false,
      "stateMutability": "nonpayable",
      "type": "function",
      "constant": false,
      "name": "transfer",
      "outputs": []
    },
    {
      "inputs": [
        {
          "name": "initialSupply",
          "type": "uint256"
        },
        {
          "name": "coinName",
          "type": "string"
        },
        {
          "name": "tokenSymbol",
          "type": "string"
        }
      ],
      "payable": false,
      "stateMutability": "nonpayable",
      "type": "constructor"
    },
    {
      "anonymous": false,
      "inputs": [
        {
          "indexed": true,
          "name": "from",
          "type": "address"
        },
        {
          "indexed": true,
          "name": "to",
          "type": "address"
        },
        {
          "indexed": false,
          "name": "amount",
          "type": "uint256"
        }
      ],
      "name": "Transfer",
      "type": "event"
    },
    {
      "anonymous": false,
      "inputs": [
        {
          "indexed": true,
          "name": "from",
          "type": "address"
        },
        {
          "indexed": false,
          "name": "value",
          "type": "uint256"
        }
      ],
      "name": "Burn",
      "type": "event"
    }
  ],
  "bytecode": "0x60606040526012600260006101000a81548160ff021916908360ff160217905550341561002b57600080fd5b604051610af8380380610af883398101604052808051906020019091908051820191906020018051820191905050600a8302600381905550600354600460003373ffffffffffffffffffffffffffffffffffffffff1673ffffffffffffffffffffffffffffffffffffffff1681526020019081526020016000208190555081600090805190602001906100bf9291906100df565b5080600190805190602001906100d69291906100df565b50505050610184565b828054600181600116156101000203166002900490600052602060002090601f016020900481019282601f1061012057805160ff191683800117855561014e565b8280016001018555821561014e579182015b8281111561014d578251825591602001919060010190610132565b5b50905061015b919061015f565b5090565b61018191905b8082111561017d576000816000905550600101610165565b5090565b90565b610965806101936000396000f300606060405260043610610099576000357c0100000000000000000000000000000000000000000000000000000000900463ffffffff16806306fdde031461009e578063150704011461012c57806317d7de7c146101ba57806318160ddd14610248578063313ce5671461027157806370a08231146102a057806395d89b41146102ed5780639b96eece1461037b578063a9059cbb146103c8575b600080fd5b34156100a957600080fd5b6100b161040a565b6040518080602001828103825283818151815260200191508051906020019080838360005b838110156100f15780820151818401526020810190506100d6565b50505050905090810190601f16801561011e5780820380516001836020036101000a031916815260200191505b509250505060405180910390f35b341561013757600080fd5b61013f6104a8565b6040518080602001828103825283818151815260200191508051906020019080838360005b8381101561017f578082015181840152602081019050610164565b50505050905090810190601f1680156101ac5780820380516001836020036101000a031916815260200191505b509250505060405180910390f35b34156101c557600080fd5b6101cd610550565b6040518080602001828103825283818151815260200191508051906020019080838360005b8381101561020d5780820151818401526020810190506101f2565b50505050905090810190601f16801561023a5780820380516001836020036101000a031916815260200191505b509250505060405180910390f35b341561025357600080fd5b61025b6105f8565b6040518082815260200191505060405180910390f35b341561027c57600080fd5b6102846105fe565b604051808260ff1660ff16815260200191505060405180910390f35b34156102ab57600080fd5b6102d7600480803573ffffffffffffffffffffffffffffffffffffffff16906020019091905050610611565b6040518082815260200191505060405180910390f35b34156102f857600080fd5b610300610629565b6040518080602001828103825283818151815260200191508051906020019080838360005b83811015610340578082015181840152602081019050610325565b50505050905090810190601f16801561036d5780820380516001836020036101000a031916815260200191505b509250505060405180910390f35b341561038657600080fd5b6103b2600480803573ffffffffffffffffffffffffffffffffffffffff169060200190919050506106c7565b6040518082815260200191505060405180910390f35b34156103d357600080fd5b610408600480803573ffffffffffffffffffffffffffffffffffffffff16906020019091908035906020019091905050610710565b005b60008054600181600116156101000203166002900480601f0160208091040260200160405190810160405280929190818152602001828054600181600116156101000203166002900480156104a05780601f10610475576101008083540402835291602001916104a0565b820191906000526020600020905b81548152906001019060200180831161048357829003601f168201915b505050505081565b6104b0610925565b60018054600181600116156101000203166002900480601f0160208091040260200160405190810160405280929190818152602001828054600181600116156101000203166002900480156105465780601f1061051b57610100808354040283529160200191610546565b820191906000526020600020905b81548152906001019060200180831161052957829003601f168201915b5050505050905090565b610558610925565b60008054600181600116156101000203166002900480601f0160208091040260200160405190810160405280929190818152602001828054600181600116156101000203166002900480156105ee5780601f106105c3576101008083540402835291602001916105ee565b820191906000526020600020905b8154815290600101906020018083116105d157829003601f168201915b5050505050905090565b60035481565b600260009054906101000a900460ff1681565b60046020528060005260406000206000915090505481565b60018054600181600116156101000203166002900480601f0160208091040260200160405190810160405280929190818152602001828054600181600116156101000203166002900480156106bf5780601f10610694576101008083540402835291602001916106bf565b820191906000526020600020905b8154815290600101906020018083116106a257829003601f168201915b505050505081565b6000600460008373ffffffffffffffffffffffffffffffffffffffff1673ffffffffffffffffffffffffffffffffffffffff168152602001908152602001600020549050919050565b61071b33838361071f565b5050565b60008273ffffffffffffffffffffffffffffffffffffffff161415151561074557600080fd5b80600460008573ffffffffffffffffffffffffffffffffffffffff1673ffffffffffffffffffffffffffffffffffffffff168152602001908152602001600020541015151561079357600080fd5b600460008373ffffffffffffffffffffffffffffffffffffffff1673ffffffffffffffffffffffffffffffffffffffff1681526020019081526020016000205481600460008573ffffffffffffffffffffffffffffffffffffffff1673ffffffffffffffffffffffffffffffffffffffff168152602001908152602001600020540111151561082157600080fd5b80600460008573ffffffffffffffffffffffffffffffffffffffff1673ffffffffffffffffffffffffffffffffffffffff1681526020019081526020016000206000828254039250508190555080600460008473ffffffffffffffffffffffffffffffffffffffff1673ffffffffffffffffffffffffffffffffffffffff168152602001908152602001600020600082825401925050819055508173ffffffffffffffffffffffffffffffffffffffff168373ffffffffffffffffffffffffffffffffffffffff167fddf252ad1be2c89b69c2b068fc378daa952ba7f163c4a11628f55a4df523b3ef836040518082815260200191505060405180910390a3505050565b6020604051908101604052806000815250905600a165627a7a723058200ee1f63fd64b6c539b6f9f2127b7e77fbb488874d48f354713ff31df5881a64e0029",
  "source": "pragma solidity ^0.4.17;\n\ncontract SpecCoin {\n    /**\n     * Public variables of SpecCoin\n     */\n    string public name;\n    string public symbol;\n    uint8 public decimals = 18;\n    uint256 public totalSupply;\n    \n    /**\n     * Maps the balance of address to the balance\n     */\n    mapping(address => uint256) public balanceOf;\n\n\n    /**\n     * Generates an event on the blockchain that will notify clients\n     */\n    event Transfer(address indexed from, address indexed to, uint256 amount);\n    event Burn(address indexed from, uint256 value);\n\n    /**\n     * Constructor - Don't know how to implement the decimals\n     */\n    function SpecCoin(uint256 initialSupply, string coinName, string tokenSymbol) public {\n        totalSupply = initialSupply * 10;\n        balanceOf[msg.sender] = totalSupply;\n        name = coinName;\n        symbol = tokenSymbol;\n    }\n\n    /**\n     * Getters for public variables\n     */\n    function getBalanceOf(address inquireAddress) public view returns (uint256) {\n        return balanceOf[inquireAddress];\n    }\n\n    function getName() public view returns (string) {\n        return name;\n    }\n\n    function getSymbol() public view returns (string) {\n        return symbol;\n    }\n\n    /**\n     * Transfer - transfer coins between accounts\n     *\n     * Send amount coins to the to address\n     *\n     * @param to The address of the recipient\n     * @param amount The amount to send\n     */\n     function transfer(address from, address to, uint256 amount) internal { \n         //Check account being sent to is not an empty account\n         require(to != 0x0);\n\n         //Check sending addresse has enough funds to send amount\n         require(balanceOf[from] >= amount);\n\n         //Check for overflows?\n         require(balanceOf[to] + amount > balanceOf[to]);\n\n         //Subtract amount from sender\n         balanceOf[from] -= amount;\n\n         //Add amount to the recipient\n         balanceOf[to] += amount;\n         Transfer(from, to, amount);\n     }\n     \n     function transfer(address to, uint256 amount) public {\n         transfer(msg.sender, to, amount);\n     }\n}",
  "sourcePath": "/Users/christophercoverdale/Desktop/Projects/Solidity/spec-coin-erc20/contracts/SpecCoin.sol",
  "compiler": {
    "name": "solc",
    "version": "0.4.18+commit.9cf6e910.Emscripten.clang"
  },
  "schemaVersion": "1.0.1",
  "updatedAt": "2017-11-19T18:18:35.377Z"
}